:020000040000fa
:080000000002040000000000f2
:020000040000fa
:100400004f8323000e7f24000e01880000000000af
:100410000c000700a0a62200010020001100070028
:10042000000020000000e000020032000000020096
:1004300000000000aa310200000000000040da00c5
:100440000000fe004440a900000020000000e00081
:100450000300320000002000a00188004440a800f2
:100460000000060091018800800078000000eb0089
:1004700015003700e280400032a0b4009101ba00bc
:10048000e280400032a0b4009102ba00e280400055
:1004900032a0b4000002eb00472bde00f507b200eb
:1004a000602ce10004003a000059eb008301e900f0
:1004b000fdff3e00040037006128e100010032002a
:1004c0000082eb00040007001101ba000200e00006
:1004d000e8ff3a00000006003159ba008301e90044
:1004e0000c0032002159ba008301e90008003200f3
:1004f0000400e00003003a00e280400032a0b400b3
:10050000f5ff370011d9ba008301e900faff3a007c
:100510008100e800e180400032a0b4000000060045
:100520000040da000000fe000a00fa0080017800b6
:10053000e20f500028003e0090c18100e10f500002
:1005400008003200802320000000e0000500320097
:10055000042320002523200046232000800178006a
:10056000040037000422200025222000462220001b
:1005700083222000144090000004e00004003500b5
:100580008009eb00144090000074a0001042980015
:10059000154090000028a30003003a001540900089
:1005a0000024a000904298008001eb000700370073
:1005b000154090000008a300fdff320063c07800e2
:1005c0000000fb00000b78008301e800828f5100df
:1005d000f7ff3a000800370030002000b0bf9f004e
:1005e000c3bf9f00d1bf9f00e2bf9f006a8057003a
:1005f00000c0da006fb99700020078000080fa00ae
:10060000000006002800fa00889fbe008a9fbe00f6
:100610008c9fbe0003866b00400307000028a300e8
:1006200064003a000128a30067003a000008a30014
:1006300062003a000108a30065003a001e00900025
:10064000be08900081064000ed3fb100f4805700e5
:10065000ee019000111ab8008e099000311bb8000d
:100660009e099000311cb800511db800f485570058
:1006700046000700fe0190003a0007008b85e80065
:100680003e0007008e09900040000700ee01900038
:10069000340007008b85e800380007008e099000c1
:1006a000400007009e0990001b18b8008904400014
:1006b0000a854800fe019000340007008b85e800a1
:1006c00038000700ee019000300007008e0990000e
:1006d0001b18b800890440000a8548000a98a30046
:1006e00008003a000402420085824a0006034b00db
:1006f00087834b0008044c0089844c000a054d0098
:100700008d06e90084827200850273004c3add0098
:10071000850272000100320015002000443ade001c
:100720001400b2004538de00cb45dd000b00700040
:10073000c540de00cb4ddd008b8070004549de00fa
:10074000cb55dd000b017100c551de000d037800b3
:100750000b03070003f0a1000cf0a70003f0a000ba
:10076000020337001b18b8008502400006834800ca
:10077000e0834b0060044c00070037001b18b800f2
:100780000603400087834800faff37001b18b800b3
:100790008703400008844800e0844c0060054d0059
:1007a000000006001b18b8000804400089844800b7
:1007b000faff37000108a300e9023a005800be0022
:1007c0005801be00e3ff37000008a300e4023a002e
:1007d00009047800f9ff370081037800140307004b
:1007e0000001be006000b8000478a30013003a00c6
:1007f0006220e10015003e000d0039008301d100a8
:100800000281d3008180d3008301d1000281d30013
:100810008180d3008301d1000281d3008180d30085
:100820000538b000c42add00f300b20083817200f5
:1008300007f0a70003f0a00000000600f3ff270068
:10084000f2ff2f006110b900fbff370003ff270004
:10085000f7ff37008f1fd1000a0307008f87e900d9
:100860000000e00000000600801feb000503070009
:100870008f87e9000000e000000006001400fa0085
:10088000889fbe008a9fbe008c9fbe000005be00f0
:100890000206be00680047000c90be000a90be0031
:1008a000210307006400e1001a00320016003e0038
:1008b0006100e1001a0032006e049000fe04900016
:1008c0000e0b90009e0b90006011b8009e059000ea
:1008d0000b38b100d50120008281710061016400f4
:1008e0008703d1000683d3008984d3000884d30012
:1008f0008502e900f8ff3a00320307000df0a70077
:1009000001f0a00099023700f1ff2700f0ff2f004f
:100910009602370001f8270000002000f7ff37009b
:100920006000b800f5ff37004c03070005097800a8
:1009300000000600809feb00d20207008f87e900cd
:100940000000e000000006002800fa00889fbe00ba
:100950008a9fbe008c9fbe0003866b006f0207005b
:100960006400e100440032006408e1004a00320003
:100970006100e100460032006108e10049003200f8
:10098000ec0647006000b8003d02be003d03be001b
:10099000f48657006011b8003d04be003d05be005e
:1009a0007d0320000b0037000000a0008d06e90049
:1009b000130032000402420085824a0006034b0005
:1009c00087834b00000040008180480002014900fd
:1009d000838149000802520089825a000a035b00a1
:1009e0008b835b00f0ff3b000802420089824a00d3
:1009f0000a034b008b834b008d06e900edff3a00a4
:100a00008482720086827200f707b20087827200c9
:100a100001003200150020001e0490003e0b9000e3
:100a200006035400e63fb0000368a300070032004d
:100a30000000a7000500a0008301d1000281d300bf
:100a40008180d3000080d3000603e8008301d10039
:100a50000281d3008180d3000080d3000002eb002c
:100a60000482d2004602070003f0a1000cf0a700a8
:100a700003f0a0003d023700640247006408e10073
:100a8000370232003400be003401be00f6ff3700ea
:100a90006108e100320232006011b8006000b80065
:100aa000f1ff370003ff270002002000fbff3700a3
:100ab0001400fa00889fbe008a9fbe008c9fbe0073
:100ac0000004be000205be00680047000a90be0098
:100ad0000890be00940207000070a7000bf0a10070
:100ae0000bf8a30016003a009e029000304320004d
:100af00080825200b0fe2f000028e1000d003c0073
:100b0000b0fc2f000028e1000d0034001e09900009
:100b10008e0890007e0090000501b0000201d10017
:100b20008180d3000080d3008502e800fbff3a00fb
:100b30000e02370001002800000020000b023700e1
:100b40006000b800090237004f89de00820178009a
:100b5000bb0137002800fa00889fbe008a9fbe00b4
:100b60008c9fbe0007067800878669000c003b005a
:100b7000030478008704780008f0a10009f0a100c0
:100b8000840f5000858f5800860f5900890f5c0034
:100b9000030033000cf0a20001003a000cf0a100a9
:100ba000de0107006400e1005f00320078014700c9
:100bb0006408e100610032006c0147007485570051
:100bc0003200be001201be003a04be001a05be008b
:100bd0001e039000be0a90008503530006003d00ee
:100be0000004fd008104fd000205fd008305fd00f9
:100bf0008703ea00050378000df8a3000400320023
:100c000060041400e0841c0060051d00e0851d00e8
:100c10006022b8007d0320000d38e1008006eb0063
:100c20000b0039004433dd00f300b2008301730090
:100c300039003700848272000d027800e1066400fa
:100c40008b85d1000a85d3008984d3000884d30022
:100c50008703e900f7ff3b00080040008980480057
:100c60000a0149008b81490004003b00600010002c
:100c7000e080180060011900e08119000358a3000a
:100c8000090032008d82720084827200610260006d
:100c90008301d1000281d3008180d3000080d30082
:100ca0000603e8001b0037000348a30017003a00c2
:100cb0000600e000170034000603e9000d00a30061
:100cc00000004800818048000201490083814900fa
:100cd0000348a3000f003a000600e00009003400ba
:100ce0000603e9000000400081804800020149003d
:100cf0008381490001003a000003eb000348a30090
:100d0000f5ff32006022b8000200370084827200d2
:100d1000618266009a01070003f0a1000cf0a700b1
:100d200003f0a00091013700640147006408e1006e
:100d300002003a000df8a30089013a003200be001b
:100d40001201be008901370007f0a20081ff3700c1
:100d5000881f7800000478005001be004000be00eb
:100d60000400400085804800060149008781490051
:100d7000009cbe000294be000400e1000588e10072
:100d80000690e1000798e10002003100680044008d
:100d90001008e8004f04780000000600f4874700c0
:100da000889fbe008a9fbe008c9fbe008e1f780069
:100db0000205be000004be00d4b79f00e5b79f0047
:100dc000f6b79f0087bf9f000000eb00c0b79f00f1
:100dd000b0b79f00a0b79f0090b79f0080b79f005b
:100de0000d042000bfb097004fb0970000014000f5
:100df0000000e0000f003d004f08de000000710021
:100e0000c0b79f009e00070001003d0012002000b7
:100e1000a100070001003d0012002000a60007000d
:100e2000b1000700b60007000f004000c8ff070030
:100e3000220037004f08de0000067100ccb79f008b
:100e40008f00070001003d00120020009200070003
:100e500001003d001200200097000700a2000700db
:100e60000fb297009fb297002fb39700bfb39700c0
:100e7000a90007000000520081805a0002015b00b7
:100e800083815b0080b79f0091b79f00a2b79f004e
:100e9000b3b79f000007eb009f0007000020e100b0
:100ea00001a8e10002b0e10003b8e1000100310057
:100eb0001e0020000e005600c0b79f004fb29700e2
:100ec0000400e000070035001000200001002000b1
:100ed0006011b80008047000898470000a05710070
:100ee0008b8571008d06e900beff3a000400e0002a
:100ef00003003d00820007000f00400094ff070040
:100f00004fa897000000e00004003a000fb49700db
:100f10009fb497002fb59700bfb5970094000700c6
:100f20004f0778004f06be004f05be004f04be00bd
:100f30004f01b10000000600881f78001800200053
:100f4000881f780095ff07008f87e9004f0478001d
:100f500000000600801feb0090ff07008f87e9006c
:100f600000000600889fbe008a9fbe008c1f78008c
:100f70006e00070007003d0073000700e00f5b00f4
:100f8000e08f5b0007003d00320007000006eb0029
:100f9000040037003400070002003d002a0007006b
:100fa0001c00200072000700e3ff07000203be00e0
:100fb0000002be000c00e000010032002200070029
:100fc0000400be000601be004f0678004f05be00bb
:100fd0004f04be0000000600889fbe008a9fbe002e
:100fe0008c1f78005100070005003d0056000700e7
:100ff000e00f5b00e08f5b0006003d00040037005f
:101000001900070003003d006000b8006011b8003f
:101010001000070056000700ceff07000203be00c5
:101020000002be000c00e0000100320006000700d4
:101030000400be000601be004f0678004f05be004a
:101040004f04be00000006006000b8006011b80048
:101050000000370004025000858258000603590042
:1010600087835900000006000006eb00e00f5200e5
:10107000e08f5a00e00f5b00e08f5b00000006008d
:101080000180400090b79f000001eb008fb09700f7
:101090000100e000000006000200700090b79f0011
:1010a0000180400080b79f000001eb00ffa897007f
:1010b0000100e000000006000200700080b79f0001
:1010c000018040006faa9700cf20de000100700071
:1010d000f0af9f0004024200250007004f18de0019
:1010e0000002720000000600e4af9f000804440004
:1010f00089844c000a054d008b854d0000000600d8
:101100003fb29700cfb297005fb39700efb397005d
:1011100000fe2f00000006003fb09700cfb0970000
:101120005fb19700efb19700000006000205be0016
:101130000004be00e00f5000e08f5800e00f59009f
:10114000e08f5900000006006000b8006011b80090
:1011500008045000898458000a0559008b855900fd
:101160001c002000e00f5200e08f5a000000060033
:101170000800be000a01be00000006001400fa00cc
:10118000889fbe008a9fbe008c9fbe000004be00e8
:101190000205be00680047000a90be000890be002d
:1011a000e10007000070a7000bf0a1000bf8a300fe
:1011b00020003a009e0990000e099000fe00900069
:1011c0006e0090009e029000344320008482520002
:1011d000660032000a003c00b4fc2f000428e10045
:1011e000140034008301d1000281d3008180d30038
:1011f0000080d3008502e800faff3a005b00370068
:10120000b40020000428e10007003c00000040007a
:101210008180480002014900838149008502e9007c
:10122000faff3a00510037000300280002002000b6
:10123000010037006011b8006000b8004b003700b3
:10124000889fbe00830478000300e0002c00350076
:1012500003003c000082700004027100260032008e
:1012600036432000c50020008383cf000a003900e8
:101270000541b1008283cf00070039000541b1006c
:101280008183cf00040039000541b1008083cf0085
:10129000010039000541b10085c353006022b80048
:1012a000120032000a003b0084827200610260007a
:1012b0008301d1000281d3008180d3000080d3005c
:1012c0000603e8008743e800f7ff3a00070037000d
:1012d00000004000818048000201490083814900ec
:1012e0000603e9008743e900f9ff3a0024000700fc
:1012f00009f0a70003f0a0004f04be0000000600a4
:1013000060001000e080180060011900e081190001
:10131000d3ff3b00033e2c00f7ff37006804470073
:101320000294be000094be00fc0447008694be00f8
:101330008494be00090078007b0007000800780054
:101340007900070099007800814f70000b003b0086
:101350000800be00ce0007004f00b10003003700b8
:10136000f3ff2700f2ff2f006110b9004f06be0007
:101370004f05be004f04be000080fa0000000600ca
:101380001800200057002000080453000d003d0005
:101390000600200097fc2f000740e1001e003400eb
:1013a00084827200610260008301d1000281d30057
:1013b0008180d3000080d3000804e800f8ff3a00e1
:1013c0004700200061046000050474000404640008
:1013d0000d00320061004000e080480060014900db
:1013e000e081490003b8a500070032000603e800c9
:1013f0006538e10004003a008301d1000281d30086
:101400008180d3000080d300f87f20000830e10005
:1014100003003500080378006000b8006011b800d0
:101420004433dd00f300b2008301730000000600c6
:10143000c70ade00f107b200f50fb2000800320063
:10144000e1cf4200020032000170a000240005003c
:10145000810f7000010032000408050044000500ff
:10146000810f700002003a00140005008502e900b7
:101470000000400081c04800fcff3b000170a0005c
:1014800024000500889fbe008a9fbe008c9fbe007e
:101490000404be000605be00809fbe00829fbe0001
:1014a00089000700040678000800be000a01be009b
:1014b00085000700840678004f03be004f02be007f
:1014c0008d4f76007fb0970013003300f0ff2f00a0
:1014d0008b8f6b0006003b000d0666000c00a7001a
:1014e0000a00370007f0a600100020000a003700ad
:1014f000880f5200898f5a008a0f5b008b8f5b0028
:10150000030039001000200001003e000000200010
:1015100007f0a7000000ea004f06be004f05be001e
:101520004f04be0000000600800078005002be009c
:101530005003be004439de00f700b200f37f200004
:1015400003016100090032000218e10016003a00b0
:1015500085017200830173008381730000082000fd
:1015600015003a004000200013003700850172008a
:10157000830173008381730005003a0004a8be0054
:1015800006a8be00100020000b0037000201e90091
:101590000402420085824a0006034b0087834b0009
:1015a0000748a300f9ff32000740a00004a8be00ce
:1015b00006a8be002000200080009800920098003d
:1015c0000000060081002000618055000b003d00f6
:1015d0000b00200061fe2f000100e1001d0034001f
:1015e00082817100610164008904d1000884d30004
:1015f0000000e800faff3a0071002000610064007a
:101600000300700002006000090032006104440021
:10161000e0844c000988a500050032008b05e80035
:101620006808e10002003a008904d1000884d30070
:10163000f20f20000258e10005003d00c75ddd000b
:10164000f907b200898075000800780000000600e4
:101650000bf827008b007800000005000003be0097
:1016600073ff07006220e100020032000600be00a6
:1016700005000500e507b100f107b20004f0230002
:101680008480700007f0a70001f0a000240005008e
:10169000e48240001078a30007003200640240009a
:1016a0001178a3003400be001401be000400320013
:1016b0000330a700000006003500be001501be0083
:1016c0000330a0000000060005ff2700058261002e
:1016d000070032000428e100010032002400050068
:1016e0000600070001003a00440005000408050058
:1016f00002000700f9ff3a00140005006f82610044
:1017000081027000850271008502720000000600ef
:101710000000fa004fb99700e88157000200070067
:101720000080fa00000006000c00fa00881f780014
:101730000002780082027800030178008001eb004b
:10174000e18f50000e0036000100e900e0bf9f006d
:101750000004eb00a8bf9f0094bf9f00b4bf9f0090
:10176000200c2000c0bf9f00850078006e805700cd
:10177000b0000700800178001fb897000848780083
:10178000030078004f0478000080fa000000060093
:10179000889fbe008a9fbe0080407800d0c6b300fc
:1017a00080cf5000290036000185fb004206200052
:1017b000110009000285d8000001780001047800ba
:1017c0004311dd00cb5823000b0141006022b8001b
:1017d0000600200007fe23000288900092889000f7
:1017e000b28990002289900086fb0700a9002000a2
:1017f000809fbe00110009000984d8000004780011
:101800004f00be004344dd000b044400482290001a
:10181000d822900068239000f823900079fb0700fd
:10182000801f780001027800110009000985d800a6
:101830000102fd004f0078004322dd000b02420050
:101840005403be004402be001f0037000180fb00ad
:10185000c9582300eacf500014003600a20020002f
:10186000110009000280d80000017800010478000e
:101870004311dd00090141006022b800060020008c
:1018800007fe230042209000d2209000f221900019
:10189000622190005bfb07004344dd000904440023
:1018a0003802be002803be00070037004300dd00f9
:1018b000090040006022b8000600200007fe230057
:1018c0005001be004000be004efb07004f05be00a9
:1018d0004f04be0000000600889fbe008a1f7800eb
:1018e000804078000004e00021003d008040ea00d4
:1018f000d0c6b30080cf5000090034008104fb0043
:1019000042062000110009008204d800000178007e
:10191000010078004311dd00ca5823001f00370082
:101920000100fb00c358230039003700a20020004b
:10193000110009000200d8000001780001007800c1
:101940004311dd00030141004300dd0003004000be
:101950003002be002003be0042209000d220900042
:10196000f22190006221900026fb07002e00370034
:10197000d0c6b30080cf5000230034008104fb00a8
:1019800042062000110009008204d80000017800fe
:10199000010078004311dd00ca6323000a01410001
:1019a000a8002000110009000800d8004300dd0055
:1019b0000a00400040229000d02290006023900056
:1019c000f02390000288900092889000b2899000e5
:1019d000228990000bfb0700801f7800010278002d
:1019e000110009008804d8000102fd004f007800b2
:1019f0000402fb004322dd000a0242005403be0041
:101a00004402be00d8ff37000100fb00c36323007f
:101a1000eacf5000c5ff3c004300dd00030040005a
:101a20005001be004000be004f0578004f04be00cc
:101a300000000600ef04b000889fbe008a9fbe0031
:101a40008c9fbe008e1f78006022b8006033b80003
:101a5000e4a79f00f5a79f0086af9f0097af9f0068
:101a6000a0af9f00b1af9f00c2af9f008002eb000c
:101a7000a5a79f00d00737008001eb0050c2b3003c
:101a800080cf5000090032000100fb00afa8970092
:101a9000d6070700e10f4000c70732002fa39700c9
:101aa0000603e800a6a79f00c3073700bfab970057
:101ab00097407800b0c2b30080cf500019003200c8
:101ac00007003c006b40500080cf500010003200f7
:101ad0006340400080cf500021003a0016003700dc
:101ae000d0c2b30080cf50000400320063404000f9
:101af00080cf50001a003a00140037000330a000d5
:101b00003fac97000804e800b8af9f00e7ff37003c
:101b10000300a000bfac97008904e800b9af9f00a4
:101b2000e2ff37000310a0003fad97000a05e80070
:101b3000baaf9f00ddff370003b0a000bfad970034
:101b40008b05e800bbaf9f00d8ff37000320a00043
:101b50003fa897000000e800b0af9f00d3ff370018
:101b60000318a300010032000300a1000338a30002
:101b7000010032000320a1000100fb0002fd2f0044
:101b800002004000e90f500010003e008000eb0012
:101b9000e1979f00020278006f9197006a10b900e8
:101ba000bfaa97001501fb0000014100040141009c
:101bb000e2979f005500fb00b5af9f000400400076
:101bc000e90f50000d003e00f3ff37000003eb006b
:101bd000e6979f00a0c2b30080cf500007003a00f4
:101be000cfab970047047800c7af9f00e8979f00ee
:101bf000bfac97008904e800b9af9f00e0c2b30012
:101c00003fad97009a4f100021003a0083067800fc
:101c10000de0a0008a00e80064405000914f1000e1
:101c200004003200b1af9f008005eb00bba79f000e
:101c3000100037004fa89700c0007800c0af9f0089
:101c4000b1a79f003fa997000281e800b2af9f00b3
:101c5000130037003fa297006a20b900000041003e
:101c600003004000b0a79f00bfaa97008502e800cc
:101c7000b5af9f003fab97001601fb0003fd2f009f
:101c800003004100e90f5000f2ff36000400370066
:101c9000830678000dc0a0008003eb00b7a79f006b
:101ca0003fac9700b8407800b8af9f00e1679f0055
:101cb00070c6b30080cf50003c00320017003c00db
:101cc0006440500080cf50008f0032000e003c0076
:101cd0007c40500080cf50003300320006003c00b2
:101ce0000104e0003a07320000c0e90080cf500054
:101cf000aa003a002900370080c5b30080cf500009
:101d0000a6003a002d00370050c6b30080cf500027
:101d1000230032001f003c00a700370000c7b300bb
:101d200080cf5000250032000a003c006440500083
:101d300080cf5000110032006340400080cf50003f
:101d40001c0032006640500080cf500093003a00e3
:101d50009900370050c7b30080cf50009500320083
:101d60006340400080cf50001500320065405000b5
:101d700080cf500089003a0013003700000028008f
:101d80000d48a30001003a00000120008086760083
:101d9000c3ff37000da0a000870037000d50a00042
:101da0000d80a000840037000d50a0000d90a00011
:101db000810037000d60a0007f0037000d50a000ab
:101dc0000d70a0007c003700cfac97004900780070
:101dd000c9af9f00e0a79f000000e00002003a00aa
:101de000eb7c2300eba79f000000eb00f0a79f0017
:101df000020037008100e800f1a79f00ffa09700d4
:101e00006fa19700028040001004e000f9ff3a0043
:101e1000bfa197000300e000040032007fa29700fa
:101e2000848f510001003100f3a79f007fa097002d
:101e30000005eb006f939700800f53000100360000
:101e4000000553004368de00e104600019003a0019
:101e50000904780009003700afa8970000022000ad
:101e6000e2060700e10f400003003200afa3970035
:101e70008703e800a7a79f000804e8008a0f540022
:101e8000f5ff3a000085eb000a003700efa097004d
:101e90003100fb00e1a79f00afa89700d306070021
:101ea000e10f4000030032002fa497000804e8006f
:101eb000a8a79f00ffa597000b00e900f0a79f00cf
:101ec000e10f4000f1ff3a000004eb000900e000e0
:101ed0000a003a00b8063700afa8970000022000b9
:101ee000c2060700e10f4000030032002fa1970057
:101ef0000201e800a2a79f000804e8008a0f54002e
:101f0000f5ff3a00ac063700cfa9970043007800f0
:101f1000c3af9f00cf80de0001017800820178000e
:101f20000203be000002be00e0a79f00f1a79f00d1
:101f300082af9f0093af9f004822de00482cdd0057
:101f400004027400e4679f000d48a3000c003200f7
:101f50000404e0000a003200e14f420008003200b1
:101f600079fa2f000f804400044878004fcd970085
:101f70001a4098002b002000fba79f0003003700a9
:101f8000f0679f0010002000f0a79f0071fa2f005b
:101f90008f804000e1a79f009dff370062fa2f006d
:101fa0000f014100e2a79f0013002000f3a79f004c
:101fb00097ff37000d0cb300007020000082660010
:101fc000820432000dc8a300020032006400200029
:101fd000b4a79f000d48a300090032004fa8970046
:101fe0004005be004004be00c0af9f00e89f9f00b8
:101ff000f99f9f008aa79f009ba79f0008003700ba
:102000004fa997004200be00c2af9f00f2f907003f
:10201000e09f9f00f19f9f0082a79f0093a79f00d2
:102020006022b8006033b8006f989700ff9897005f
:102030000fa197009fa1970006fa07000000e0009b
:102040000a003d006f9a9700ff9a97000fa3970030
:102050009fa3970007f0a200e49f9f00f59f9f00b9
:1020600086a79f0097a79f003d00b3000000eb00ec
:10207000d0979f006022b8006033b8006f98970037
:10208000ff9897000fa197009fa19700f6f907000e
:102090000000e000340032006f989700ff9897002e
:1020a0000fa197009fa19700f4f90700a5fa2f0050
:1020b0000f8142001cfa07005f9097000000e900c2
:1020c0006300b900a2002000110009000200d8003e
:1020d0008000fd00d1979f000100e00002003d005c
:1020e0000100e900d0979f005f9497000840ea0044
:1020f000f9fd07006f9a9700ff9a97000fa39700ca
:102100009fa397003ff90700a09f9f00b19f9f00ea
:10211000c29f9f00d39f9f006022b800060020004e
:1021200007ff2300cbf907000000e00002003d009c
:102130000800e9000b0037006022b800060020000c
:10214000470224002f989700bf9897004f99970057
:10215000df999700f7f907000000e0000200350062
:102160000800e800d0979f005f939700d6a79f00d4
:102170000600e00003003c0010c0b300e0679f00d1
:1021800002003700afcb9700e7679f000d0678008d
:102190000c10b20008003a000d98a300770232003c
:1021a0005fa49700e40f440003003500bfa497002c
:1021b000890f5400f20135003fa597000a00e000a6
:1021c000040032000d98a300020032000a05e90065
:1021d000baa79f00bfa5970020c1b300f28f55009a
:1021e00001003e006fc09700e0679f006022b800ca
:1021f0006033b8006f989700ff9897000fa1970081
:102200009fa1970098f907000000e0006d003200e0
:102210006f659700afc897000ac05000aefd070079
:102220000002be000203be006f989700ff9897005f
:102230000fa197009fa19700c3f90700e09f9f009f
:10224000f19f9f0082a79f0093a79f0018fa0700a5
:102250000004be003cfa0700e00f5400e08f5c0071
:1022600004003d006022b80006002000071f240083
:1022700038fa07000002be000203be006f98970004
:10228000ff9897000fa197009fa19700aefa070053
:102290006022b8000600200007fe2300a5f9070011
:1022a0000000e0000c0035006022b80006002000ad
:1022b00007fe23006f989700ff9897000fa19700e3
:1022c0009fa1970023fa0700e09f9f00f19f9f00c6
:1022d00082a79f0093a79f006f989700ff98970091
:1022e0000fa197009fa19700f1f907000002be001f
:1022f0006033b8000a00fb004304dd00c96e230010
:1023000009004400d000900060019000f0019000ae
:10231000400090000020e10001a8e10002b0e100cf
:1023200003b8e100100039000400200005002a0075
:102330009699290097fb23006f989700ff989700c4
:102340000fa197009fa19700aef80700e09f9f00a4
:10235000f19f9f0082a79f0093a79f005fa1970016
:102360000200e80016003700090044005001be00da
:102370004000be000020e10001a8e10002b0e10041
:1023800003b8e1000f0031006022b8000600200011
:10239000470224006f989700ff9897000fa19700bd
:1023a0009fa1970097f80700e09f9f00f19f9f0073
:1023b00082a79f0093a79f00dfa197000300e90079
:1023c000d0979f004968de006100600080cf9f00c9
:1023d0000004e0004000320000802000008666001b
:1023e0003d003a00bfa29700f48f52000200340073
:1023f00046012000b6a79f006f989700ff989700ae
:102400000fa197009fa19700a9f907000004be0043
:102410000c0578008c0578000b003700bfa39700ef
:102420008703e900b7a79f00a40020000500200053
:102430006033b8000800be000a01be00befa070003
:102440000205be000004be00e00f5400e08f5c00f7
:10245000e00f5d00e08f5d000b003200a400200063
:10246000050020006033b8000800be000a01be006d
:10247000b8fa0700e00f5000e08f5800e00f590055
:10248000e08f5900e5ff3200ef6097000100fb008c
:102490003fa49700800f54000f003d0008c050007b
:1024a0000dfd07000002be000203be006f989700fa
:1024b000ff9897000fa197009fa1970022f90700ae
:1024c000e09f9f00f19f9f0082a79f0093a79f001e
:1024d000efc49700e9679f006f959700bfa597002d
:1024e0000b005500650650000b00e00002003a00aa
:1024f0000db8a3000100320066065000638066003c
:10250000010032000c06e9000d28a300260032006d
:10251000e18066000d18a3000c003200d0022000fc
:102520000100e00001003a000080e900afa8970038
:102530002e050700e10f4000180032002fa0970081
:102540000000e800a0a79f00140037000100e00091
:1025500012003200afa897000002200023050700f8
:10256000e10f40000d003200afa097008100e800ad
:10257000a1a79f0009003700afa897000003200023
:102580001a050700e10f4000030032002fa1970059
:102590000201e800a2a79f000c06e9000c00e00081
:1025a000f5ff3c002e0037000d38a3000a00320072
:1025b0000b003700afa89700000220000b050700b2
:1025c000e10f400003003200afa197008301e80053
:1025d000a3a79f000c06e9000c00e000f5ff3c00fb
:1025e000e18066000d18a30013003200d002200025
:1025f0000100e00001003a000080e900afa8970068
:10260000fa040700e10f4000150032002fa29700e6
:102610000402e800a4a79f0011003700e8a79f006c
:10262000f9a79f008aaf9f009baf9f008042eb00fd
:10263000e5679f00800037000100e00008003200dd
:10264000afa8970000022000e8040700e10f400057
:10265000030032002fa397000603e800a6a79f00ff
:102660006f989700ff9897000fa197009fa1970080
:102670000ff907000004be006055b800ef63970033
:102680000700fb004300dd00ce6e23000e0040007b
:102690003002be002003be000800be000a01be00da
:1026a00025fa07000003b000afa89700cf04070089
:1026b000e10f4000030032002fa097000000e80067
:1026c000a0a79f00ef6097000100fb004300dd0022
:1026d0000e0040003002be002003be000800be0015
:1026e0000a01be001bfa07000205be000004be007e
:1026f000e0a79f00f1a79f0082af9f0093af9f00cc
:10270000bfa297000500e00002003a000db8a30048
:1027100049003200afa89700e0022000b304070090
:10272000e10f4000030032002fa397000603e800ea
:10273000a6a79f00ef6397000700fb00bfa09700cc
:1027400000805000809f9f00240037000fc9970031
:102750000204e00005003200e00f5400e08f5c004e
:10276000e00f5d00e08f5d00acff32000000fb0079
:102770004300dd00ce6e23000e0040003002be009c
:102780002003be000800be000a01be00eaf90700ef
:102790000003b000afa8970094040700e10f4000c9
:1027a00003003200afa197008301e800a3a79f00b8
:1027b0006f6297000400fb004300dd000e00400044
:1027c0003002be002003be000800be000a01be00a9
:1027d000e0f907000205be000004be00ef629700aa
:1027e0000540e900e0679f00e14f4000d7ff3a0055
:1027f000e8a79f00f9a79f008aaf9f009baf9f00ab
:102800000004eb0009003700afa897000003200088
:1028100076040700e10f4000030032002fa3970069
:102820000603e800a6a79f000804e8008f9b970016
:10283000870f5400f4ff3a000d58a300090032003e
:10284000afa897005004200068040700e10f400083
:102850000c0032002fa497000804e800a8a79f00ee
:1028600008003700afa89700500620005f0407005b
:10287000e10f400003003200afa497008904e80094
:10288000a9a79f005f9097000000e0000b003d00ab
:102890000000ea00d0979f00afa89700d002200068
:1028a00052040700e10f40000c0032002fa59700f2
:1028b0000a05e800aaa79f0008003700afa8970004
:1028c000b002200049040700e10f4000030032007d
:1028d000afa597008b05e800aba79f005f9097001e
:1028e000a8002000110009000800d8000003b00073
:1028f000afa897003d040700e10f4000030032003d
:102900002fa097000000e800a0a79f00df9097008d
:10291000110009008800d8008000fd000003b0000d
:10292000afa8970031040700e10f40000300320018
:10293000afa097008100e800a1a79f000d38a30079
:102940001d0432000c00e0001b0434000004eb0006
:10295000afa897000002200024040700e10f400008
:10296000030032002fa197000201e800a2a79f00f8
:102970000804e8008c0f54000f043200f4ff370005
:10298000dfa197000300e00004003d003fa2970094
:10299000030052000000e900b0a79f006f98970065
:1029a000ff9897000fa197009fa19700f3f90700e8
:1029b0000205be000004be000c427800c56e230074
:1029c0000b0037000400fb004300dd000500400061
:1029d0005001be004000be000040e10001c8e1001f
:1029e00002d0e10003d8e100030039000442e8000e
:1029f000f44f5200f3ff3a00e4679f000400fb002d
:102a0000bfa2970000875200f80f57000d003c004e
:102a10000e4078005efb07000002be000203be000d
:102a20006f989700ff9897000fa197009fa19700bc
:102a300048f80700e09f9f00f19f9f0082a79f003a
:102a400093a79f000e407800a3fb0700d0af9f0024
:102a5000e1af9f00f2af9f0083b79f00e00f5400eb
:102a6000e08f5c00e00f5d00e08f5d00040035004a
:102a70000800be000a01be00f1f90700130037008c
:102a800010002000010020006011b8000800600064
:102a9000898060000a0161008b8161008b03d10095
:102aa0000a83d3008982d3000882d3000000720019
:102ab000818072000201730083817300e0f90700d6
:102ac0000002be000203be0022f807000002be00a2
:102ad0000203be006f989700ff9897000fa1970020
:102ae0009fa1970098f807000002be000203be00f5
:102af0005fa89700efa897007fa997008fb1970074
:102b0000c0f607009df907000205be000004be00e4
:102b10000006eb0008003700a4002000050020009c
:102b20006033b8000800be000a01be0002f90700c9
:102b30000205be000004be000c035700b6a79f00ac
:102b40008e0f56001d0032000c06e800a400200085
:102b5000050020006033b8000800be000a01be0076
:102b6000fcf80700e00f5000e08f5800e00f59001c
:102b7000e08f5900e8ff320010003700bfa3970034
:102b8000f88f53000d003c000740780000fb070061
:102b90000002be000203be006f989700ff989700e6
:102ba0000fa197009fa19700eaf70700e09f9f0001
:102bb000f19f9f0082a79f0093a79f005fa49700ab
:102bc000e90f540015003c006022b8006033b800e3
:102bd0006f989700ff9897000fa197009fa197000b
:102be00021f707000000e000360032006f989700e0
:102bf000ff9897000fa197009fa197005ff907002a
:102c0000e00f5000e08f5800e00f5900e08f5900ae
:102c10002c003a00e10f54002a0034000400200088
:102c200005002e00b6e02200170124002f9897001f
:102c3000bf9897004f999700df99970005f7070015
:102c40000000e00003003d00dfa497007380540003
:102c5000020037005fa5970072005500d0979f00d3
:102c60002f6897001cfb0700a09f9f00b19f9f004b
:102c7000c29f9f00d39f9f000002be000203be00c0
:102c80006f989700ff9897000fa197009fa197005a
:102c90002df7070039f90700e0a79f00f1a79f0073
:102ca00082af9f0093af9f006000b8006011b80032
:102cb000d0b79f00e1b79f00f2b79f0083bf9f008e
:102cc000340037006f989700ff9897000fa1970086
:102cd0009fa1970029f90700e0a79f00f1a79f0097
:102ce00082af9f0093af9f00e00f5000e08f58002d
:102cf000e00f5900e08f59000200350050f907003d
:102d00001700370010002000010020006011b800fb
:102d10006fa29700ffa297000fab97009fab9700a1
:102d20000400600085806000060161008781610009
:102d30008703d1000683d3008582d3000482d300a9
:102d400000007200818072000201730083817300b1
:102d50003bf907000002be000203be007df707003a
:102d60000002be000203be006f989700ff98970014
:102d70000fa197009fa19700f3f70700d0b79f001e
:102d8000e1b79f00f2b79f0083bf9f000000eb00f8
:102d9000d0979f0014c0b300c56e23000f0037000a
:102da0000400fb004300dd00050340003600be00c8
:102db0002601be006fa49700ffa497000fad9700f7
:102dc0009fad97000040e10001c8e10002d0e100a2
:102dd00003d8e100030039000442e800f44f520038
:102de000efff3a00e4679f000400fb00bfa49700d8
:102df00000804400df909700010040006f9597002d
:102e0000000655004b68de00610060000047780056
:102e10000004e00002003a000900e0000100320076
:102e20000c06e90063806600010032000c06e90030
:102e30000d28a30026003200e18066000d18a300d3
:102e40000c003200d00220000100e00001003a0036
:102e50000080e900afa89700e4020700e10f4000fe
:102e600018003200afa597008b05e800aba79f00c4
:102e7000140037000100e00012003200afa89700f4
:102e800000022000d9020700e10f40000d003200cf
:102e90002fa097000000e800a0a79f0009003700be
:102ea000afa8970000032000d0020700e10f400008
:102eb00003003200afa097008100e800a1a79f00a7
:102ec0000c06e9000c00e000f5ff3c003f00370075
:102ed0000d38a3000a0032000b003700afa897009e
:102ee00000022000c1020700e10f40000300320091
:102ef0002fa197000201e800a2a79f000c06e9009d
:102f00000c00e000f5ff3c00e18066000d18a30016
:102f10000c003200d00220000100e00001003a0065
:102f20000080e900afa89700b0020700e10f400061
:102f300026003200afa197008301e800a3a79f00fd
:102f4000220037000100e00020003200afa8970007
:102f500000022000a5020700e10f40001b00320024
:102f60002fa297000402e800a4a79f0017003700d3
:102f70000000fb004300dd00c16e230001004000a3
:102f80003002be002003be006fa09700ffa0970094
:102f90000fa997009fa99700e7f70700a40020005a
:102fa000050020006033b800eaf707000003b00016
:102fb000afa897008d020700e10f40000300320028
:102fc000afa297008502e800a5a79f006f63970056
:102fd0000640e900e0679f00e14f4000e4ff3a004f
:102fe0000b003700afa89700000320007f02070006
:102ff000e10f400003003200afa397008703e80011
:10300000a7a79f005f9097000000e900d0979f005e
:103010005f9097000000e000f2ff3c003fa49700a3
:10302000f20f54000300340020c1b300e0679f009a
:1030300002003700efc49700e9679f00ef60970038
:103040000100fb003fa5970000005500f0979f008e
:103050000104e00002003a000e04e0000800320023
:10306000afa89700e002200060020700e10f4000d7
:1030700003003200afa597008b05e800aba79f00c7
:103080006f60970014fa07000002be000203be0042
:103090005fb09700efb097007fb197008fb99700ae
:1030a00058f5070035f807001e0037000000fb0048
:1030b0004300dd00ce6e23000e0040003002be0053
:1030c0002003be000800be000a01be009af70700f8
:1030d000a4002000050020006033b8009df7070021
:1030e0000003b000afa8970040020700e10f4000c6
:1030f000030032002fa097000000e800a0a79f0067
:10310000ef6097000100fb004300dd000e0040006f
:103110003002be002003be000800be000a01be004f
:103120008cf707000205be000004be006f61970027
:103130000240e900e0679f00e14f4000dbff3a00fa
:10314000e8a79f00f9a79f008aaf9f009baf9f0051
:103150000004eb0009003700afa89700000320002f
:1031600022020700e10f400003003200afa19700e8
:103170008301e800a3a79f000804e8007f9297005e
:10318000840f5400f4ff3a000d38a3000a02320005
:103190000c00e000080234000004eb00afa8970028
:1031a0000002200011020700e10f4000030032007e
:1031b000afa297008502e800a5a79f000804e800d9
:1031c0008c0f5400fc013200f4ff37000d00780032
:1031d000000cb20032003a000d00e00009003d0092
:1031e0004fa897004005be004004be00c0af9f003e
:1031f000e8a79f00f9a79f008aaf9f009baf9f00a1
:10320000160037000d48a300090032004fa99700af
:103210004200be00c2af9f004f89de00cf91de00aa
:103220000002be0002037800820378000700370026
:10323000cfa9970043007800c3af9f000002780039
:10324000cfa2de000503780086037800e4a79f0084
:10325000f5a79f0086af9f0097af9f006fa49700d0
:10326000ffa497000fad97009fad9700e00f5400ab
:10327000e08f5c00e00f5d00e08f5d0026003d0008
:103280003d00b3006000b8006011b80008045000b1
:10329000898458000a0559008b8559001a003700a7
:1032a0000d00e00005003d004faa97004401be005c
:1032b0004400be00c4af9f00070037000d48a300c4
:1032c0000a003200cfaa97004500be00c5af9f009c
:1032d0000401780084017800e0a79f00f1a79f0017
:1032e00082af9f0093af9f000b0037004fab97005a
:1032f00046007800c6af9f00000478000900200057
:103300000a0020000b002000e8a79f00f9a79f00fb
:103310008aaf9f009baf9f00bfa497000900e00009
:103320000b003a006fa09700ffa097000fa997002d
:103330009fa99700e00f5000e08f5800e00f590060
:10334000e08f590002003a0011002000b1a79f0051
:103350000d0678000c0cb20000042000800f56000f
:103360003700320003003c000c00e0000700320090
:103370004b00370000082000800f56001800320074
:10338000000c2000800f560045003a0014c0b30026
:10339000c56e23000f0037000400fb004300dd0072
:1033a000050040005001be004000be006fa4970021
:1033b000ffa497000fad97009fad97000040e1007c
:1033c00001c8e10002d0e10003d8e1003300390078
:1033d0000442e800f44f5200efff3a002f0037009c
:1033e00000012000010020006011b80014c0b300eb
:1033f0006fa49700ffa497000fad97009fad9700b3
:103400000040e10001c8e10002d0e10003d8e10082
:1034100022003900490020000000d0008180d20045
:103420000281d2008381d2008904e900faff3a00c8
:103430000442e800f04f5200edff3a001700370059
:1034400080002000010020006011b80014c0b3000b
:103450006fa49700ffa497000fad97009fad970052
:103460000040e10001c8e10002d0e10003d8e10022
:103470000a003900390020000000d0008180d2000d
:103480000281d2008381d2008904e900faff3a0068
:103490000442e800f54f5200edff3a00e4679f0058
:1034a0006f6597000a00fb00bfa597008b0f5000c7
:1034b00002003d00eb679f0004003700bfa09700ab
:1034c000808f500001003d00b0a79f006f919700d2
:1034d0000200e00004003200638066000200320057
:1034e0000201e900e2979f000de8a3000b00320003
:1034f000ef9197003fa29700848f510003003c009a
:103500008002eb00e5979f00040037006f9397005f
:10351000bfa3970007035300e6979f00408c20004d
:103520000080660001842000810f500006003a00f0
:103530006f9497000800e000110032000804e900d1
:10354000e8979f000e003700008c20000080660086
:1035500001882000810f500009003a00ef94970085
:10356000e28f540003003c000005eb00ea979f0047
:1035700003003700ef9597008b85e900eb979f00dc
:10358000ef6097000100fb000007eb006f919700d0
:10359000800f510001003400000751000d28a300e6
:1035a0004b003200e18066000d18a3000c003200d1
:1035b000d00220000100e00001003a000080e90094
:1035c000afa8970009010700e10f40002700320073
:1035d000afa197008301e800a3a79f002300370055
:1035e0000100e00009003200afa8970000022000af
:1035f000fe000700e10f40001c0032002fa29700e0
:103600000402e800a4a79f0018003700008c2000e7
:103610000080660001882000810f500013003a00ee
:10362000afa8970000032000f0000700e10f400062
:1036300003003200afa297008502e800a5a79f0013
:10364000800520000d58a30001003a0080072000eb
:10365000afa89700e5000700e10f4000030032002b
:103660002fa397000603e800a6a79f000e00e00026
:103670000d0032000004eb00afa89700000320000b
:10368000da000700e10f400003003200afa397000b
:103690008703e800a7a79f000804e8008e0f5400e6
:1036a000f5ff3a000007eb003fa49700c340dd00a0
:1036b000406e2300808540004240dd0064055000dc
:1036c0006340b900909f9f0063045000a200370040
:1036d0000e00e0000f003200688066000d003a0026
:1036e00000047800afa8970000022000bf00070088
:1036f000e10f400003003200afa497008904e80006
:10370000a9a79f000804e8008e0f5400f5ff3a00b7
:103710000007eb00e18066000d18a3000c003200ea
:10372000d00220000100e00001003a000080e90022
:10373000afa89700ad000700e10f40000e00320077
:103740002fa597000a05e800aaa79f000a003700e6
:103750000100e00008003200afa89700000220003e
:10376000a2000700e10f400003003200afa5970060
:103770008b05e800aba79f00008c200080806600ce
:1037800000842000808f500009003a00afa8970005
:103790000003200095000700e10f4000c2ff320047
:1037a0002fa097000000e800a0a79f00beff3700f1
:1037b00000882000808f5000bbff3a00afa8970020
:1037c0000003200089000700e10f400003003200e1
:1037d000afa097008100e800a1a79f00800520000e
:1037e0000d58a30001003a0080072000afa8970001
:1037f0007e000700e10f4000abff32002fa19700d1
:103800000201e800a2a79f00a7ff370000042000e4
:10381000800f56003100320003003c000c00e00035
:10382000070032004000370000082000800f5600db
:1038300012003200000c2000800f56003a003a00bf
:103840003b02be002b03be006fa09700ffa09700b5
:103850000fa997009fa99700b7f50700a4002000c3
:10386000050020006033b800baf5070004c3b300b8
:1038700004424000e4679f002b003700597d23007d
:103880000d58a30001003a00697e230014002000b7
:10389000050020006033b8000a0078000000e9004d
:1038a000050033000402d0008582d2000683d200d6
:1038b0008783d200f9ff37006fa09700ffa0970021
:1038c0000fa997009fa997009bf507006f00600064
:1038d000e9447800e9679f001300370014002000d6
:1038e000050020006033b800880078008100e900fe
:1038f000050033000402d0008582d2000683d20086
:103900008783d200f9ff37006fa09700ffa09700d0
:103910000fa997009fa9970087f5070067406000ef
:103920000043b000e0679f006f6197000200fb005a
:10393000afa897002d000700e10f40000300320000
:10394000afa197008301e800a3a79f00e885550079
:103950006405550063045400d0ff2f003fa2970078
:1039600000a0b9009f9a97000080420063005000b9
:10397000800f5400a5ff3a000d38a3000e0032005e
:103980000e00e0000c0034000004eb00afa897002c
:103990000002200015000700e10f40000300320084
:1039a0002fa397000603e800a6a79f000804e800dd
:1039b0008e0f5400f5ff3a00bfab9700b740780078
:1039c000b7af9f00e1679f000104e0002af83a00ca
:1039d0002fa097004f0778004f06be004f05be008e
:1039e0004f04be00ef04b10000000600889fbe0037
:1039f0000001780001047800b10090000118a300d4
:103a00003d0032000198a30003003a001800900026
:103a10000000e00038003a000190a0003104980056
:103a200082047800f90fb200180090000000e00056
:103a300002003a0028009000000c7800ea8f540041
:103a400006003a00380090000078a30003003a0016
:103a500088007800d0002000e4ff07009800900064
:103a600058009000808f50000b0032000100e800e9
:103a7000100498001800780009587800000c7800ad
:103a800011c0b3008082230001487800ea8f5400ff
:103a900006003200190037008800780009407800dd
:103aa00019000700800478001400370038009000e7
:103ab0000088a3001100320018019000a8009000b7
:103ac0004800900098f2070098009000810f500085
:103ad00004003200380090000003b3003004980066
:103ae0008084eb000000eb00100498002800900098
:103af000000c7800010037008084eb00090078009a
:103b00004f04be00000006000200fa00889fbe00bd
:103b1000a0ff9f0001047800b100900081047800ac
:103b20000904b200020032000000fb00360037003a
:103b30000118a30005003a000103b3003104980006
:103b4000190498000080eb002f0037005800900007
:103b50000000e00006003a0048009000120020003b
:103b6000e680570070f2070019049800240037001f
:103b7000280090000000e00008003a004082230086
:103b800020049800000c78002000200050049800c9
:103b9000100498000130a000310498001801900032
:103ba000a8009000480090005ff2070028009000f5
:103bb000000c78000080eb001004980018007800da
:103bc000aff8970001587800000c78002ff89700a4
:103bd000ea4f50000a003a00380090000088a30025
:103be0000700320018019000a800900048009000e3
:103bf0004df2070019049800a8009000010c78000d
:103c0000aff897000100fb004f04be000080fa00ef
:043c100000000600aa
:020000040000fa
:020000040005f5
:0457f800be230000cc
:020000040000fa
:020000040005f5
:0457fc007f3e0000ec
:020000040000fa
:1000080090020000900200009002000090020000a0
:100018009002000090020000900200009002000090
:1000280090020000900200009002000040310000a1
:100038009002000090020000900200009002000070
:100048009002000090020000900200009002000060
:100058009002000090020000900200009002000050
:100068009002000090020000900200009002000040
:100078009002000090020000900200009002000030
:100088009002000090020000900200009002000020
:100098009002000090020000900200009002000010
:1000a8009002000090020000900200009002000000
:1000b80090020000900200009002000090020000f0
:1000c80090020000900200009002000090020000e0
:1000d80090020000900200009002000090020000d0
:1000e80090020000900200009002000090020000c0
:1000f80090020000900200009002000090020000b0
:10010800900200009002000090020000900200009f
:10011800900200009002000090020000900200008f
:10012800900200009002000090020000900200007f
:10013800900200009002000090020000900200006f
:10014800900200009002000090020000900200005f
:10015800900200009002000090020000900200004f
:10016800900200009002000090020000900200003f
:10017800900200009002000090020000900200002f
:10018800900200009002000090020000900200001f
:10019800900200009002000090020000900200000f
:1001a80090020000900200009002000090020000ff
:1001b80090020000900200009002000090020000ef
:1001c80090020000900200009002000090020000df
:1001d80090020000900200009002000090020000cf
:1001e80090020000900200009002000090020000bf
:0801f8009002000090020000db
:020000040000fa
:10020800900200009002000090020000900200009e
:10021800900200009002000090020000900200008e
:10022800900200009002000090020000403100009f
:10023800900200009002000090020000900200006e
:10024800900200009002000090020000900200005e
:10025800900200009002000090020000900200004e
:10026800900200009002000090020000900200003e
:10027800900200009002000090020000900200002e
:10028800900200009002000090020000900200001e
:10029800900200009002000090020000900200000e
:1002a80090020000900200009002000090020000fe
:1002b80090020000900200009002000090020000ee
:1002c80090020000900200009002000090020000de
:1002d80090020000900200009002000090020000ce
:1002e80090020000900200009002000090020000be
:1002f80090020000900200009002000090020000ae
:10030800900200009002000090020000900200009d
:10031800900200009002000090020000900200008d
:10032800900200009002000090020000900200007d
:10033800900200009002000090020000900200006d
:10034800900200009002000090020000900200005d
:10035800900200009002000090020000900200004d
:10036800900200009002000090020000900200003d
:10037800900200009002000090020000900200002d
:10038800900200009002000090020000900200001d
:10039800900200009002000090020000900200000d
:1003a80090020000900200009002000090020000fd
:1003b80090020000900200009002000090020000ed
:1003c80090020000900200009002000090020000dd
:1003d80090020000900200009002000090020000cd
:1003e80090020000900200009002000090020000bd
:0803f8009002000090020000d9
:020000040000fa
:103c14000000fa00e01680000020a000e0168800f2
:103c240040012000000a0700e1168000b0ff2f00c9
:103c340000806000e016880040012000fa090700b7
:103c4400e01680000020a000e0168800400120005b
:103c5400f50907000080fa00000006000400fa00dd
:103c6400000f780021479800000024001e00700017
:103c74002030880000000000000000002e4090006a
:103c84000080fb00403088000000000000000000bd
:103c94000000000000000000000000000000000020
:103ca40000000000000000000080fa000000060090
:103cb4000400fa00100798009e0090000000240001
:103cc4000080700020308800000000000000000028
:103cd40040308000004f7800000000000000000029
:103ce40000000000000000000000000000000000d0
:103cf40000000000000000001e80fb000080fa00ad
:103d0400000006000000fa0010c181000000e0007d
:103d14007d003a001000200010c18900e1168000e7
:103d2400b0ff2f0000806000e0168800c1168000fc
:103d3400b0ff2f0000806000c016880031602000b2
:103d440091407800c0cfb30000c060000014a00010
:103d540003e6b70002c6bf00f043b20001c4b300db
:103d64000140700002e6b700216020009140780015
:103d740030ccb30000c060000034a00002e6b700fd
:103d84002160200091407800c0cfb30000c06000e3
:103d940002e6b700100024006030880000c6bf00af
:103da400f043b20001c8b3000140700000e6b70060
:103db4000106a8000126a80001e6a80094ff070058
:103dc40093ff0700e1cab3000000eb00a3ff070064
:103dd400b1cdb3000000eb00a0ff070031c2b30077
:103de4000000eb009dff070091cdb3000000eb0045
:103df4009aff070021c2b3000000eb0097ff070001
:103e040011cab3000000eb0094ff070041ccb300db
:103e14000000eb0091ff0700a1cdb3000000eb0010
:103e24008eff070021c1b3000000eb008bff0700e9
:103e340081cab3000000eb0088ff0700f1c3b300a0
:103e44000000eb0085ff070051cdb3000000eb003c
:103e540082ff070001cab3000000eb007fff0700e8
:103e640011c8b3000000eb007cff070001c6b300db
:103e74000000eb0079ff070031cdb3000000eb0038
:103e840076ff07008040eb000000eb0073ff0700a3
:103e940061cab3000000eb0070ff0700d1cab30091
:103ea4000000eb006dff0700b1c8b3000000eb0099
:103eb4006aff0700f1cab3000000eb0067ff0700c8
:103ec400800c20005809070051cab3000000eb0021
:103ed40062ff070001c4b3000000eb005fff0700ae
:103ee40021c0b3000000eb005cff070001c1b30078
:103ef4000000eb0059ff070041cab3000000eb00cb
:103f040056ff0700020007000080fa0000000600c8
:103f14000400fa000000eb00100798001d003700b1
:103f24001e0090008040780000cbb30000c0400029
:103f3400804078000000eb0048ff070021c0b30078
:103f44000000eb0045ff070001c1b3000000eb00d7
:103f540042ff07000000eb00000f78000700370065
:103f64008040eb00100020003cff07008040eb0085
:103f74001000200039ff07001e0fe800f0032000a6
:103f84009e0f1000f6ff34001e0090000000e800b1
:103f9400100798001e009000e70f5000e0ff340067
:103fa400890007000080fa00000006000400fa00ff
:103fb400000f7800110798001e007800f0c08900f7
:103fc4001e00900000c189000080fa000000060075
:103fd4000000fa00f0c081000000e800f0c0890091
:103fe400f0c08100e70f5000020034000000eb0035
:103ff400f0c089000080fa00000006000000fa000a
:104004000000eb0000c189000080fa0000000600f7
:104014000000fa00f9ff0700edff07000080fa0036
:10402400000006000000fa0000c181000000e80062
:1040340000c1890000c18100f40f50000100340068
:10404400f3ff07000080fa00000006000a00fa00ef
:10405400604798006e4090000000fb004007980005
:104064004e009000ea0f5000070032004e0090000e
:10407400ed0f5000070032004e009000e90f500091
:10408400060032000a003700dcff0700d0ff0700fb
:1040940037003700d9ff07003500370000c2b300ee
:1040a400eaff070000c2b300e8ff07003000370052
:1040b40000c181006600b9000080e8001007980084
:1040c400f0c081008040780070cbb3000140500004
:1040d400804078000000eb00e0fe07001e00900026
:1040e400ef4060000000eb00dcfe07001e009000c3
:1040f4004480de006f4060000044a00080407800ef
:104104000000eb00d5fe07006e409000ce080700cb
:10411400000f78000000eb00200798001000370023
:10412400ee40900000c2b30080cf500004003a007b
:104134008040eb0010002000c8fe07000500370097
:104144001e007800904078001e0fe8001000200048
:10415400c2fe07002e0090000000e800200798002f
:104164002e009000e50f5000edff3400adff070076
:104174000080fa00000006000200fa00000f780038
:10418400040037001e007800104078001e0fe8007d
:10419400aeff07001e007800104078000004e00025
:1041a400f8ff3a000080fa00000006000200fa005e
:1041b400000f78001e007800efff070094ff07004f
:1041c4000080fa00000006000000fa008000eb0006
:1041d4000000eb0075ff07000080fa0000000600f5
:1041e4000400fa00000f7800110798009e00900068
:1041f4001e0078006dff07000080fa000000060032
:104204000000fa0082ff07000080fa0000000600a8
:104214000000fa00f0c081000080fa0000000600ef
:104224000000fa0000c181000080fa0000000600ce
:104234000200fa00000f78001e00780060bc8900bc
:104244000080fa00000006000000fa0060bc810053
:104254000080fa00000006000e00fa003007980003
:1042640041079800520798003e0090000000e000cb
:104274004c003500be009000f0072000808f5000f5
:1042840048003c004e0090000000e000450035006e
:10429400ce009000f0032000808f50000100340015
:1042a400400037004e0090004380de0080407800dc
:1042b40070c0b30001405000404798003e00900099
:1042c40000c0e800304798004e0090000080ea00eb
:1042d400e7006000100020000100dd002047980086
:1042e4005e0090000000e000030032002e409000c9
:1042f400404f9800020037000040eb00404f980008
:104304004e48900010479800ce40900000cbb30078
:1043140080c070000000eb0050fe07003e4090009b
:10432400ef4060000000eb004cfe07003e409000b0
:104334000080fb004400de006f4060000044a000e9
:10434400804078000000eb0044fe070001ceb3007b
:104354000000eb0041fe07001000200054fe07009f
:104364001000200052fe07001000200050fe07003d
:10437400004f78002e40900080c0ea001e40780074
:1043840080c060001e40900000c070008040780033
:104394001000200031fe0700e1ceb3000000eb0066
:1043a4002efe07000080fa00000006000a00fa0052
:1043b40020079800310798002e0090000000e000cc
:1043c4000b003500ae009000f0072000808f5000f5
:1043d40007003c003e0090000000e00004003500af
:1043e400be009000f0032000808f500003003400d2
:1043f4000080eb0040079800280037003e00900042
:104404004380de008040780070c0b300014050005b
:10441400204798002e00900000c0e8001047980044
:104424003e009000e7006000100020000100dd0065
:10443400004f78001e409000ef4060000000eb0049
:1044440006fe07001e4090000080fb004400de00d2
:104454006f4060000044a000804078000000eb0042
:10446400fefd0700ae40900000cbb30080c070009a
:104474000000eb00f9fd0700100020000cfe07000f
:104484001e4060008000eb00410798000004e0003b
:104494000200320010002000400798004e009000f7
:1044a4000080fa00000006000200fa00004f7800c5
:1044b400600020000080fa00000006000400fa00fa
:1044c400100798000000eb00000f7800040037008c
:1044d4001e00900010407800f3ff07001e0f4000fc
:1044e4001e009000104078000004e000f8ff3a003d
:1044f4001e0078000080fa00000006000e00fa009a
:104504004007980051079800424f98004e48900089
:10451400cd070700100798000000eb003007980053
:104524001f0037001e009000104f78001e009000fe
:104534000000e800100798000000eb002007980036
:10454400110037001e80fb0061016000de00900056
:104554002e00900000805000e7014000ce00900043
:104564003e00900000804000830078003aff07007e
:104574001e80fb000000d100004f78002e00900048
:104584000000e800200798002e009000e70f50007c
:10459400ecff34003e0090000000e8003007980073
:1045a4003e009000e50f5000deff34000080fa006a
:1045b400000006000600fa00000f780011079800ba
:1045c400220798000c0037002e009000104178005c
:1045d4009e0090001e007800c8ff07002e00900087
:1045e40010407800b0ff07001e0f40002e0090001e
:1045f4000000e800200798002e009000104078008a
:104604000004e000f0ff3a000080fa000000060019
:104614001200fa005007980061079800720798008a
:10462400030f9800fe0090005e0090000080500090
:10463400100798008e0890006e009000008f5000c4
:104644001e0090000000e000460035001e00e0005f
:10465400440035001e0090000000e8001007980098
:104664001e0fe8001e0090009e0f50001f00340033
:104674000000eb0040079800170037004e00900040
:1046840000004000800078001e0078000088b90017
:104694000000e8001e019000110009000200d8008b
:1046a4000080d1002007980062bc8100ee009000d9
:1046b4002e00900080814000de0090004e009000ab
:1046c4000080400083007800e3fe07004e00900065
:1046d4000000e80040079800ce0090001e00900003
:1046e400808f5000e5ff3500fa0037000000eb0032
:1046f40040079800170037004e009000000040006b
:10470400800078001e0090000088b9000000e800d6
:104714001e017800110009000200d8000080d100b9
:104724003007980062bc8100ee0090004e009000bb
:1047340080814000de0090003e0090000080400038
:1047440083007800c4fe07004e0090000000e800db
:10475400400798004e0090009e0f5000e6ff350081
:10476400dc0037001e0090000000e00047003c0021
:104774001e00e00045003c001e0090006100100097
:1047840010079800100020001e0f50001e0090001b
:104794009e0f50001f0035000000eb0040079800fa
:1047a400170037004e0090000000400080007800a1
:1047b4001e0078000088b9000000e8001e01900087
:1047c400110009000200d8000080d10020079800e1
:1047d40062bc8100ee0090002e00900080815000a9
:1047e400de0090004e0090000080500083007800ae
:1047f40099fe07004e0090000000e8004007980072
:10480400ce0090001e009000808f5000e5ff350020
:10481400b00037000000eb00400798001700370095
:104824004e00900000004000800078001e009000c0
:104834000088b9000000e8001e017800110009009a
:104844000200d8000080d1003007980062bc8100cb
:10485400ee0090004e00900080815000de00900039
:104864003e00900000805000830078007afe07002c
:104874004e0090000000e800400798004e009000b1
:104884009e0f5000e6ff3500920037001e00900096
:104894000000e000470035001e00e00045003c0039
:1048a4001e0090000000e80010079800100020008f
:1048b4001e0f50001e0090009e0f50001f00350078
:1048c4000000eb0040079800170037004e009000ee
:1048d40000004000800078001e0078000088b900c5
:1048e4000000e8001e019000110009000200d80039
:1048f4000080d1002007980062bc8100ee00900087
:104904002e00900080815000de0090004e00900048
:1049140000804000830078004ffe07004e009000a6
:104924000000e80040079800ce0090001e009000b0
:10493400808f5000e5ff3500660037000000eb0073
:1049440040079800170037004e0090000000400018
:10495400800078001e0090000088b9000000e80084
:104964001e017800110009000200d8000080d10067
:104974003007980062bc8100ee0090004e00900069
:1049840080815000de0090003e00900000804000d6
:104994008300780030fe07004e0090000000e8001d
:1049a400400798004e0090009e0f5000e6ff35002f
:1049b400480037001e0090000000e00045003c0065
:1049c4001e00e000430035001e009000610010004e
:1049d400100798001e0fe8001e0090009e0f500064
:1049e4001f0035000000eb00400798001700370057
:1049f4004e00900000004000800078001e00780007
:104a04000088b9000000e8001e01900011000900b0
:104a14000200d8000080d1002007980062bc810009
:104a2400ee0090002e00900080814000de00900097
:104a34004e009000008050008300780006fe0700be
:104a44004e0090000000e80040079800ce0090005f
:104a54001e009000808f5000e5ff35001d003700d8
:104a64000000eb0040079800170037004e0090004c
:104a740000004000800078001e0090000088b9000b
:104a84000000e8001e017800110009000200d800af
:104a94000080d1003007980062bc8100ee009000d5
:104aa4004e00900080814000de0090003e009000a7
:104ab4000080500083007800e7fd07004e0090005e
:104ac4000000e800400798004e0090009e0f500040
:104ad400e6ff35000080fa00000006000800fa0036
:104ae400000f7800110798002207980033079800f8
:104af4009e0190002e0190009e0090001e00780000
:104b0400c3fe0700be0190002e0190009e0090009d
:104b14002e009000befe0700be0190001e0178002a
:104b2400be0090002e009000b9fe07009e01900088
:104b34001e017800be0090001e007800b4fe07003d
:104b44000080fa00000006000600fa001007980032
:104b54009e009000f0072000808f50000300340076
:104b64000080eb00200798000200370010002000ae
:104b7400200798002e009000000f78001e0090007f
:104b840002082000110009000200d8008000fd0086
:104b9400100798009e009000f0032000808f5000c2
:104ba40004003400f00720009e0090000100500033
:104bb400100798009e009000e07823006140780080
:104bc4008000fb001e0078000088b9000080fa0015
:104bd400000006001200fa005007980061079800d0
:104be40072079800030f9800de0090007e0090008a
:104bf40000804000300798006e0090002007980065
:104c04000000eb00400798002c0037004e00900095
:104c140002102000110009000200d8008000fd00ed
:104c2400c9ff0700800078000e0890000088b900d2
:104c34000008b0004780de00100798004e00900086
:104c44000004b00002102000110009000200d80086
:104c54008000fd00bcff0700800078007e0090000b
:104c64000088b9000008b0004780de00000f78001b
:104c7400ee0090001e009000808040005e009000d6
:104c84001e01400081017800ae0090003e009000bb
:104c94005ffe07005e0090001e0040003007980091
:104ca400ee0090001e009000008040002007980055
:104cb4004e0090000000e80040079800ce009000ed
:104cc40000102000808f5000d0ff34000080fa00d4
:104cd400000006000000fa000000eb0000988900c4
:104ce4000000eb00109889000000eb002098890078
:104cf4000080fa00000006000200fa00000f7800ad
:104d04001c003700129881001e0078009040780043
:104d140080802000017178001e0fe8001098810047
:104d24000000e800109889001198810070af2200fb
:104d3400808f5000020034000000eb0010988900be
:104d44000198810010988100808f500009003a007a
:104d5400009881000000e800009889000198810013
:104d640070af2200808f5000020034000000eb007e
:104d7400009889001e007800104078000004e000cc
:104d8400e0ff3a000080fa00000006000000fa008c
:104d94000000eb0050c189000000eb0020408800b7
:104da4000080fa00000006000400fa0050c18100ef
:104db400100798001e009000e10f50001800320008
:104dc4001e009000e10f500004003c001e00900003
:104dd4000000e000080032007f0037001e00900051
:104de400e20f5000530032001e009000e30f500009
:104df40066003200780037001000200050c189009e
:104e04000000eb00309889000000eb004098890016
:104e1400edfc070020988100509889006e0037004f
:104e2400509881008180200060c07800ea4f5000d3
:104e340015003a00509881000000e800509889005d
:104e44005198810070af2200808f5000020034001e
:104e54000000eb005098890051988100109881005f
:104e6400808f500003003a0030002000000f7800cb
:104e74000200370020002000000f78001e00780098
:104e840050c189005400370040988100f40f50004d
:104e940018003c0051988100808020006140780017
:104ea4006afc0700519881008080200061407800ee
:104eb400ed4f500003003a000000eb0040988900d9
:104ec4000c003700509881008180200060c0780079
:104ed400e94f500004003a00409881000080e80047
:104ee4004098890003003700409881000000e800e2
:104ef40040988900509881000000e800509889008b
:104f04005198810070af2200808f5000020034005d
:104f14000000eb005098890051988100109881009e
:104f2400808f50002c003a003000200050c18900ce
:104f34002900370040988100f40f50000800340025
:104f4400309881000000e800309889000000eb00f0
:104f5400409889001000200050c1890005003700e6
:104f640000c2b30039fc0700409881000000e8004b
:104f74004098890030988100e70f500016003400f3
:104f84004000200050c18900130037004098810080
:104f9400f40f500006003400309881000000e8004f
:104fa400309889000000eb00409889000500370024
:104fb40000c2b30025fc0700409881000000e8000f
:104fc4004098890030988100e70f500002003400b7
:104fd4004000200050c189000080fa000000060053
:104fe4000400fa000000eb001007980020988100ec
:104ff400000f78000000eb0020408800c4fb07008d
:10500400180037009e0078008080200061407800fe
:105014000efc07009e00780080802000614078002c
:10502400ea4f500006003a001e0090000000e8001d
:10503400100798001e009000e80f50000c0032008a
:105044001e0fe80070af22009e0f10000200340013
:105054000000eb00000f7800109881009e0f1000f4
:1050640003003200109881009e0f1000e5ff3a0003
:105074000080fa00000006000600fa0010079800fd
:105084001e009000000f78000c0037001e0fe8008f
:1050940070af22009e0f1000020034000000eb00ed
:1050a400000f7800109881009e0f100003003a0052
:1050b4001e00900020079800130037001e0078009f
:1050c4008180200060c07800ea4f5000efff3a0072
:1050d4001e0fe80070af22009e0f10000200340083
:1050e4000000eb00000f7800109881009e0f100064
:1050f40003003a001e0090002007980002003700c9
:105104001e007800200798002e0090000080fa000e
:10511400000006000600fa00100798001e00900028
:10512400000f7800009881009e0f100003003a00e1
:105134001e00900020079800290037001e0fe90088
:105144001e00e00002003d0070af2200000f780056
:10515400009881009e0f100003003a001e007800a2
:10516400200798001e0037001e0fe9001e00e00013
:105174000e003d0070af2200000f78000b003700d6
:10518400009881009e0f100003003a001e00780072
:1051940020079800120037001e0fe9001e00e000ef
:1051a40002003d0070af2200000f78001e0078005e
:1051b4008180200060c07800ea4f5000f0ff3a0080
:1051c4001e0fe80070af22009e0f10000200340092
:1051d4000000eb00000f78001e0078002007980004
:1051e4002e0090000080fa00000006000400fa007f
:1051f400100798000000eb00000f7800040037004f
:105204001e009000c3ff0700100798001e0fe8005f
:10521400700020009e0f1000f9ff34001e00900063
:105224000080fa00000006000a00fa003007980027
:105234000000eb00200798003e0090001007980043
:105244000000eb00200798000e0037001e009000bd
:1052540089ff0700000f78001e0090009e0f1000c9
:1052640003003a003e009000400798000a0037000f
:105274001e007800100798002e0090000000e8003f
:10528400200798002e009000e70f5000efff340035
:105294001e007800400798004e0090000080fa003d
:1052a400000006000400fa00100798001e00900099
:1052b400000f78001e007800100798001e00900070
:1052c400d9ff0700000f78001e0090009e0f100009
:1052d400f8ff3a001e0090000080fa00000006006b
:1052e4000000fa007bfe07000080fa0000000600c0
:1052f4000a00fa00204080000000e00004003200b0
:1053040050c18100e40f500001003a009ffe0700e5
:10531400a5fe07003040800030079800823e200040
:10532400be019000110009008281d8008000fd00b8
:105334008040eb00414798000000e000020032008a
:1053440013c0b30043479800be0090000100e8007a
:1053540030408800ce4190000304e00039003a0058
:1053640060c181000000e00006003a00ef0207007f
:105374000000e00033003a001000200060c1890002
:1053840030003700e90207000000e0002d00320081
:105394000000eb0060c18900e402070010079800d8
:1053a40020988100000f78009e009000410798002b
:1053b400ce019000e28f51001a0032004e0090009e
:1053c400e20f500004003c00ce009000e18f50003a
:1053d4000800320016003700ce019000e38f510020
:1053e400080032004e009000e40f50000900320023
:1053f4000f0037002098810046ff0700209889009d
:105404000b003700209881001bff070020988900bb
:10541400070037002098810074ff07002098890056
:1054240003003700209881007fff0700209889003f
:10543400209881009e0f100002003200100020000e
:10544400204088000080fa00000006000200fa00f4
:10545400000f78001e00780027fe070020988100c6
:1054640090ff070020988900100020002040880049
:105474000080fa00000006000601fa000007990007
:1054840012079900230799001e009100ae009100b5
:10549400809fbe008e009100811f7800f10f2000d4
:1054a4000e00780099f00700e68757000e00780098
:1054b40011fe0700209881007aff070020988900d8
:1054c40010002000204088000080fa000000060040
:020000040000fa
:1054d40000080000020000000200000001000000bb
:1054e4000208000002000000000000002e38000046
:1054f40002000000000000008c37000042000000a1
:105504000200000001000000030609000c10130053
:1055140016191c001f222500282b2e0031333600bb
:10552400393c3f0041444700494c4e00515355001b
:10553400585a5c005e606200646668006a6b6d00c5
:105544006f70710073747500767879007a7a7b00d5
:105554007c7d7d007e7e7e007f7f7f001e38000084
:1055640006000000000000003038000002000000c7
:10557400000000002a3800000400000002000000bf
:10558400040000000000000004080000482b000094
:10559400000000004c330000400200000200000044
:1055a40000000000000000000000fd0000000000fa
:1055b40000c00000c000000028fe2800fe280000f3
:1055c4006492fe00924c000044a854002a24000077
:1055d4006c929a00640a0000000040008000000001
:1055e40000384400820000000082440038000000bb
:1055f40054387c003854000010107c001010000057
:10560400000a0c0000000000101010001010000030
:1056140000000600060000000608100020c000007c
:105624007c8a9200a27c00002242fe00020200005a
:105634004e9292009262000044829200926c0000aa
:1056440038489e0008080000f4929200928c0000f2
:105654007c929200924c00008284880090e00000ca
:105664006c929200926c000064929200927c000012
:10567400006c6c0000000000006a6c000000000078
:105684000010280044820000282828002828000050
:10569400008244002810000040808a0090600000ce
:1056a4007c829800a47c00003e488800483e0000ac
:1056b400fe929200926c00007c8282008244000080
:1056c400fe828200827c0000fe92920082820000b0
:1056d400fe909000808000007c828200925c00003a
:1056e400fe10100010fe00000082fe008200000088
:1056f4000c02020002fc0000fe102800448200009c
:10570400fe02020002020000fe40200040fe0000f3
:10571400fe20100008fe00007c828200827c0000d3
:10572400fe909000906000007e828a008a7f0000d4
:10573400fe9098009462000064929200924c0000e3
:105744008080fe0080800000fe02020002fe000055
:10575400f804020004f80000fe04080004fe00003f
:10576400824438004482000080403e0040800000b3
:10577400868a9200a2c200000000fe00820000009f
:10578400c0201000080600000082fe000000000097
:1057940000408000400000000202020002020000fb
:1057a4000080400000000000042a2a002a1e000095
:1057b400fe222200221c00001c22220022140000cf
:1057c4001c22220022fe00001c2a2a002a120000a9
:1057d400107e900080400000102a2a002a1c00003d
:1057e400fe202000201e00000222be000202000053
:1057f4002422a200223c0000fe080800142200001b
:105804000282fe00020200003e201e00201e000054
:105814001e202000201e00001c222200221c00004a
:105824003e2424002418000018242400243e0000f0
:105834003e10200020100000102a2a002a04000034
:1058440010fc1200120400003c020200023c0000a2
:1058540020180600182000003c020400023c00004e
:105864002214080014220000300a0a000a3c000036
:1058740022262a00322200000054aa0082000000de
:105884000000fe00000000000082aa005400000096
:105894001020100008100000fefefe00fefe0000b6
:1058a400ec360000a000000002000000010000002f
:1058b4000000000000000a000000000000000000da
:1058c400006400000000000000000000e803000085
:1058d400000000000000100027000000000000008d
:1058e40000a08600010000000000000040420f00fc
:1058f40000000000000080009698000000000000f6
:105904000000e100f50500000000000000ca9a0054
:105914003b00000000000000e40b54000200000003
:105924000000e80076481700000000000010a50001
:10593400d4e8000000000000a0724e001809000026
:10594400000040007a10f3005a0000000080c600f6
:10595400a47e8d000300000000c16f00f2862300c6
:10596400000000008a5d78004563010000006400c7
:10597400a7b3b600e00d000000e889000423c700c7
:105984008a000000ce3700002a0000000200000058
:10599400286e75006c6c29000030310032333400fd
:1059a400353637003839410042434400454600004b
:1059b4003031320033343500363738003961620013
:1059c40063646500660000008c350000600100001f
:1059d400020000000000000000000000f03f000092
:1059e4000000a0009999b9003f0000000040e100c8
:1059f4007a843f0000000000e04d6200503f000048
:105a04000000e000e2361a003f0000000080b5000c
:105a1400f8e43e0000000000a0f7c600b03e00001d
:105a24000000a000f2d77a003e00000000e08e00e3
:105a340079453e0000000000e00b2e00113e0000fe
:105a44000000e000df7cdb003d0000000000a1005e
:105a54009cc73b0000000000004c4800b439000023
:105a640000000000206ca1003700000000000000ce
:105a74000000000000000000000000000000000022
:105a84000000000000000000000000000000000012
